S02100007274313036345F736970666C6173685F736664705F70726F672E7372656376
S113000000000220BD410000E71B0000EF390000A2
S1130010E54200008F4300009B4300000000000005
S113002000000000000000000000000099470000EC
S11300309B470000000000009D4700009F47000010
S1130040F5450000FD450000054600000D46000092
S1130050154600001D460000254600002D46000000
S1130060354600003D460000454600004D46000070
S1130070554600005D460000654600006D460000E0
S1130080754600009547000095470000954700001D
S11300907D460000854600008D4600009546000020
S11300A09D460000A5460000AD460000B546000090
S11300B0BD460000C5460000CD460000D546000000
S11300C0DD460000E5460000ED460000F546000070
S11300D0FD460000054700009547000095470000D5
S11300E0954700009547000095470000954700009C
S11300F0954700009547000095470000954700008C
S1130100954700009547000095470000954700007B
S1130110954700009547000095470000954700006B
S11301200D470000154700001D470000254700004B
S11301302D470000954700009547000095470000B3
S1130140954700009547000095470000954700003B
S1130150954700009547000095470000954700002B
S1130160954700009547000095470000954700001B
S1130170954700009547000095470000954700000B
S113018095470000954700009547000095470000FB
S113019095470000954700009547000095470000EB
S11301A09547000095470000354700003D47000093
S11301B095470000954700009547000095470000CB
S11301C095470000954700009547000095470000BB
S11301D095470000954700009547000095470000AB
S11301E095470000954700009547000045470000EB
S11301F04D47000095470000554700005D4700004B
S11302009547000095470000654700006D470000D2
S1130210954700009547000095470000954700006A
S1130220954700009547000095470000954700005A
S1130230954700009547000095470000954700004A
S1130240954700009547000095470000954700003A
S1130250954700009547000095470000954700002A
S1130260954700009547000095470000954700001A
S1130270954700009547000095470000954700000A
S113028095470000954700009547000095470000FA
S113029095470000954700009547000095470000EA
S11302A0754700007D470000854700009547000022
S11302B08D470000954700009547000095470000D2
S11302C095470000954700009547000095470000BA
S11302D095470000954700009547000095470000AA
S11302E0954700009547000095470000954700009A
S11302F0954700009547000095470000954700008A
S11303009547000095470000954700009547000079
S11303109547000095470000954700009547000069
S11303209547000095470000954700009547000059
S11303309547000095470000954700009547000049
S11303409547000095470000954700009547000039
S11303509547000095470000954700009547000029
S11303609547000095470000954700009547000019
S11303709547000095470000954700009547000009
S113038095470000954700009547000095470000F9
S113039095470000954700009547000095470000E9
S11303A095470000954700009547000095470000D9
S11303B095470000954700009547000095470000C9
S11303C095470000954700009547000095470000B9
S11303D095470000954700009547000095470000A9
S11303E09547000095470000954700009547000099
S11303F0954700009547000095470000FFFFFFFF69
S113040010B450E8003F8B4313431C0040E8004302
S1130410002BF6D110BC70472DE9F04104000D000B
S1130420260036B2360AA0460FFA88F818F01F08DC
S1130430082E09D340F2DF52DFF8F418DFF8F4088D
S113044000F094FCAFF30080DFF8EC0800EB8607C3
S11304502A00D2B212FA08F2032111FA08F1380084
S1130460FFF7CEFFBDE8F08110B5040003212000A2
S113047000B2FFF7D1FF10BD016851F00101016026
S11304800168C907FCD4704741617047D0F8E01097
S1130490890704D5D0F8E00010F0010000E0002046
S11304A0C0B2704770B504000D001600002C08D1CE
S11304B07822DFF88818DFF8880800F057FCAFF3DB
S11304C0008020000021B14203D20570401C491C69
S11304D0F9E770BD38B504000025032D07D2DFF815
S11304E0640850F82500A04201D06D1CF5E7032DE7
S11304F008D38F22DFF84418DFF84C0800F036FCEC
S1130500AFF30080280032BD2DE9F84304000D004C
S113051001262068C0F3011948460028022802D9A0
S1130520C01E03D00BE00120060010E0287900284B
S113053002D00120060001E00020060007E0B022FE
S1130540DFF8F8178EA000F011FCAFF30080300044
S1130550C0B2002802D04FF480701AE02868DFF897
S1130560EC17884201D3792013E0A97C4FF47A7008
S1130570414388464B20B8FBF0F007004B2000FBBA
S113058007F0404500D27F1C780210F4FC4050F480
S11305908070BDE8F28370B505000C00002640F6BB
S11305A00A000440002C1DD0200503D541F6593023
S11305B0060013E0200703D541F65A3006000DE08B
S11305C0A00703D541F65B30060007E0EC22DFF814
S11305D06C176BA000F0CAFBAFF300802100280069
S11305E0FFF752FF300070BDF8B504000D0000267F
S11305F000272000FFF76EFFDFF8541731F91000D1
S1130600FFF732FF206830F0020020602000FFF77F
S113061033FF2B781B0113F03003E87853EA0033DF
S1130620A87A53EA0043287C53EA0063687853EAC3
S11306308033287953EAC023A87853EA4033A87B4F
S113064053EAC013E87B53EA801353F00203236098
S11306502889B5F812C05CEA004CC4F804C0D4F888
S113066008E0DFF8F00610EA0E0E287D5EEA006E60
S113067068795EEAC04EA8795EEAC03E95F82E001D
S11306805EEAC02EC4F808E0E16831F0780195F81C
S11306902F0051EA801195F8300051EA401195F885
S11306A0310051EA001195F8320051EAC001E160CD
S11306B000221000C0B2042832D21000C0B204EBF1
S11306C08000036ADFF89006034006201600F6B2A5
S11306D046432E44B67E53EAC6731600F6B246432A
S11306E02E44B67D360616F0407633431600F6B235
S11306F046432E44F67D360416F470263343160022
S1130700F6B200FB06F02844008BC0F3C700034395
S113071019001000C0B204EB80000162521CC8E74B
S1130720D4F8B80030F03C00C4F8B800D4F8B800ED
S11307302B7BDB085B1E9B0013F03C031843C4F8BF
S1130740B800D4F8BC0030F03C00C4F8BC00D4F8C5
S1130750BC00EB7ADB085B1E9B0013F03C031843E0
S1130760C4F8BC0000200200D2B2042A07D200223E
S11307700300DBB204EB83031A66401CF3E7F1BD0C
S11307803000000010B50400342200212000FFF7DF
S113079089FE00202070002060700020A0700120DD
S11307A0E07000202071002060710020A0714FF6DD
S11307B0FF702081FF21A1720822E27208222273B5
S11307C00022A2730022E27321746082202020752B
S11307D01822002114F11600FFF764FE0020010026
S11307E0C9B2022915D206210200D2B24A432244D8
S11307F0012393760200D2B24A4322440F23D375D5
S11308000200D2B201FB02F1214400220A83401CFF
S1130810E5E702210800C0B2042810DA06200A0025
S1130820D2B242432244012393760A00D2B200FB9F
S113083002F020444FF480720283491CEAE700204E
S113084084F82E00002084F82F00002084F8300063
S1130850002084F83100002084F8320010BD2DE916
S1130860F84304000D00160000275FF00008B146AD
S11308705FFA89F95FEA59092000FFF707FE0028AB
S1130880FAD029002000FFF73FFE4946C9B204EB25
S11308908101C1F8C000216831F00201216049469C
S11308A0C9B2002901D1032101E05FF44031C2073C
S11308B00CD5D4F8E8200A408A42FAD16422130005
S11308C0DBB2002B02D000BF521EF8E7BDE8F18373
S11308D02DE9F84304000D0016005FF0000937000D
S11308E0FFB27F082000FFF7D1FD0028FAD0A868E6
S11308F03100C9B204EB81010866E889297BC90388
S113090011F4004151EA0041287C400110F4787050
S11309100143687C10F01F000143E87CC00210F41E
S1130920F0400143287D51EA80213000C0B204EB3D
S1130930800001673000C0B204EB8000D0F88080F2
S1130940DFF8180410EA0808687E000710F0E04099
S113095050EA0808688BDFF8081411EA004151EAEC
S11309600808A87D002810D0687D000210F470608B
S113097050EA0808404695F81680B8F101085FEA85
S1130980483818F4604858EA0008287E00280FD038
S1130990E87D10F00F0050EA0808404695F81880EA
S11309A0B8F101085FEA481818F0E00858EA0008AE
S11309B03000C0B204EB8000C0F880803200D2B2B4
S11309C029002000FFF74BFF206850F00200206050
S11309D0287F002806D0D4F8940040084000C4F8CA
S11309E0940005E0D4F8940050F00100C4F8940099
S11309F03800C0B200280DD1D4F8940030F00400BF
S1130A00C4F89400D4F89400297F50EA8100C4F813
S1130A1094000CE0D4F8940030F00800C4F894007A
S1130A20D4F89400297F50EAC100C4F894002068E7
S1130A3030F0020020602000FFF728FD0028FAD0E3
S1130A40BDE8F1832DE9F04104000D0016001F00FC
S1130A50402D09D340F24D22DFF8E012DFF8040301
S1130A6000F084F9AFF300805FF000082000FFF786
S1130A700DFD0028FAD0DFF8F022A2610220E06127
S1130A8004EB850010F500700021B94205D23368EB
S1130A900360361D001D491CF7E7A2610122E261D3
S1130AA0BDE8F0812DE9F04706000F001500D6F8E7
S1130AB0BC00C0F3830818F1010800245FF0000AA9
S1130AC0002D4CD0706981464006FBD54946300064
S1130AD0FFF761FD0400002C01D0200040E0B5EBDD
S1130AE0C80F12D300208246BAEB480F08D23868E8
S1130AF006EB8A01C1F880013F1D1AF1010AF3E7F0
S1130B007FF0070000FB085526E000208246BAEB80
S1130B10950F08D2386806EB8A01C1F880013F1DA1
S1130B201AF1010AF3E77FF0030000FB0A552800DD
S1130B30002810D000220023834208D23D781900F7
S1130B40C9B2C9008D402A437F1C5B1CF4E706EB45
S1130B508A01C1F88021002540207061B0E720009F
S1130B60BDE8F0872DE9F84F05000E001700D5F811
S1130B70B800C0F3830818F1010800245FF0000AEC
S1130B805FF0000B002F6CD0B7EBC80F0DD3686972
S1130B908146800619D449462800FFF7FCFC04006E
S1130BA0002CF4D0012083460FE0D5F8F00000F0CB
S1130BB0FF00C000B84208D269692800FFF7EBFCC7
S1130BC00400002CF1D0012083465846C0B200280E
S1130BD047D169692800FFF7DEFC0400002C40D1EE
S1130BE0B7EBC80F12D300208246BAEB480F08D2E5
S1130BF005EB8A00D0F800013060361D1AF1010AB5
S1130C00F3E77FF0070000FB087727E00020824627
S1130C10BAEB970F08D205EB8A00D0F800013060D8
S1130C20361D1AF1010AF3E77FF0030000FB0A778F
S1130C303800002811D005EB8A01D1F800110022F8
S1130C409246824509D25246D2B2D2000B00D3401A
S1130C503370761C1AF1010AF3E70027202068613B
S1130C6090E72000BDE8F28FF8B505000E000027DC
S1130C700024307905EB8000317905EB8101D1F84E
S1130C80801051F00041C0F880101F206861306866
S1130C90C5F8A000D5F8BC0050F00100C5F8BC00B0
S1130CA0D5F8B80050F00100C5F8B80070790228F2
S1130CB005D07079032802D07079012802D1F06838
S1130CC080B20700B079000410F470200743F07973
S1130CD0401E000610F0E0600743C5F8A470D5F884
S1130CE0B00050F00100C5F8B0007079032802D0BC
S1130CF07079012806D1F268B1682800FFF7D2FEA6
S1130D00040008E07079022805D1F268B16828006F
S1130D10FFF728FF04006869C007FCD5002C04D144
S1130D2069692800FFF737FC04002000F2BD0000C9
S1130D30F43C00003845000068C00F40703D0000DE
S1130D4098450000B04500002840000000E1F5058A
S1130D50EC450000FF77F70000FFF07C10100080E6
S1130D600000FF0FA4450000F05AF05A70B50400CB
S1130D700D00160033002A002100054800F045F854
S1130D8032002900200000F041FA00BEFDE700BF58
S1130D90404100002DE9F84185B004000D00160023
S1130DA01F003000C0B2012801D001202AE0DFF882
S1130DB0B48088F810600097019500208DF8080031
S1130DC000208DF8090001208DF80A0001208DF81B
S1130DD00B0000208DF80C0000208DF80D008DF81C
S1130DE00E4000208DF80F0000208DF81000694699
S1130DF0404600F08DFA1C48C8F808001B48C8F8A3
S1130E000C00002006B0BDE8F0810EB478B50400F3
S1130E10002605AD2900200000F003F872BC5DF83F
S1130E2010FB70B504000D0000260E48007C00285D
S1130E3002D15FF0FF3005E02A0021000FF2090023
S1130E4000F06DF870BD000001B50648017C002972
S1130E5002D15FF0FF3004E00122694683689847BD
S1130E60012002BD2C010020EF1300008B130000B1
S1130E702DE9F84304000D0016001F00DDF8208062
S1130E80A946B14508DA2000C0B2C0473868401C02
S1130E90386019F10109F4E7BDE8F1832DE9F64F53
S1130EA005000B9A0020290000240C7011F1010C9C
S1130EB000265FF0000E5FF000085FF000095FF0AD
S1130EC0000B002700245FF0000A0099096800293C
S1130ED005D15FF0300B8CF800B0401C1DE00029F8
S1130EE01BD0B1FBF3FB5F4603FB171BBBF10A0FDF
S1130EF002D25C46303409E01400E4B2002C01D084
S1130F00412400E0612414EB0B040A3C39008CF802
S1130F1000401CF1010C401CE1E7BDE8F68F2DE90F
S1130F20F34F93B006001700002400200390002024
S1130F30029000208DF8050000200490DDF8508018
S1130F4098F80000002801D102985CE198F80000AC
S1130F5081464846C0B2252808D04846C0B2B047AA
S1130F600298401C029018F10108E9E701208DF86D
S1130F7006000020824600208DF804009DF804003D
S1130F8000281AD118F1010898F800008146484653
S1130F90C0B230280BDB4846C0B23A2807DA0A2030
S1130FA000FB0AFA5AFA89FABAF1300AE6E7B8F10C
S1130FB0010801208DF80400E0E718F10101087828
S1130FC02E2820D10020834600208DF804009DF8AF
S1130FD00400002818D1491C087881464846C0B24C
S1130FE030280BDB4846C0B23A2807DA0A2000FB57
S1130FF00BFB5BFA89FBBBF1300BE8E7491E0120D0
S11310008DF80400E3E7491E481C07900798007810
S113101081464846C0B2642824D04846C0B26928F4
S113102020D04846C0B266281CD04846C0B24628E4
S113103018D04846C0B2782814D04846C0B25828C0
S113104010D04846C0B26F280CD04846C0B26228BF
S113105008D04846C0B2702804D04846C0B27528AB
S113106040F09C804846C0B2642803D04846C0B2D1
S1131070692810D138683F1D05909DF8060000903E
S11310800A23012205A90AA8FFF708FF03900AA86A
S11310900399084404004846C0B2582803D048467F
S11310A0C0B2782817D14846C0B2782802D10020AF
S11310B08DF8060038683F1D04909DF806000090E6
S11310C01023002204A90AA8FFF7E8FE03900AA847
S11310D00399084404004846C0B26F280BD0484620
S11310E0C0B2622807D04846C0B2702803D0484630
S11310F0C0B275283FD14846C0B270280ED13868B6
S11311003F1D009004200990684608900DF11008D6
S1131110099A0899404600F0A7F902E038683F1D93
S113112004904846C0B262280AD06F2804D07028C0
S11311300AD075280CD00FE008208DF805000BE0CC
S113114002208DF8050007E010208DF8050003E06B
S11311500A208DF80500FFE79DF8060000909DF831
S11311600530002204A90AA8FFF798FE03900AA8F4
S1131170039908440400009602AB524603992020C8
S1131180FFF776FE002C3AD02078002837D020785C
S1131190B047641E0298401C0290F5E74846C0B26E
S11311A0632808D138683F1D06900698B047029816
S11311B0401C029023E04846C0B2732819D1386815
S11311C03F1D0500002D1AD0280000F0A1F903905E
S11311D0009602AB524603992020FFF749FE287877
S11311E000280CD02878B0476D1C0298401C02904F
S11311F0F5E74846C0B2B0470298401C02900798F1
S113120010F101089CE615B0BDE8F08F0300002042
S113121070470EE002684368024408305FEAC37C0A
S113122044BF4B445B1E52F804CB43F804CB091F64
S1131230F9D150F8041B0029ECD1704701000029B2
S113124001D1002001E042F6AF7000B27047F0B562
S113125085B005000E000027684600F005FB7068A5
S11312600090307A8DF80400707A8DF80700B07A17
S1131270002801D0012000E000208DF81100F07A50
S1131280002801D0012000E000208DF81000F07B40
S1131290002808D0F07B042801DAF07B00E0042069
S11312A0401E8DF80800307C002808D0307C0428CB
S11312B001DA307C00E00420401E8DF80900307B08
S11312C0002801D0012000E000208DF80A00707B86
S11312D0002801D0012000E000208DF80B0001203F
S11312E08DF80E0001208DF80F00326869465648CB
S11312F0B37B50F8230000F088F90400002C03D0DD
S11313002000FFF79BFF0700380000B205B0F0BDD6
S113131070B504000D00002C07D140F2BA224B49ED
S11313204B48FFF723FDAFF30080002D07D140F2B7
S1131330BB2246494748FFF719FDAFF30080A87B5D
S1131340092807D34FF42F7240494348FFF70EFD95
S1131350AFF300803C48A97B50F82100002807D156
S113136040F2BD2239493D48FFF700FDAFF300804C
S113137029002000FFF76BFF010009B2002902D108
S11313802600A97B317000B270BD2DE9F041040044
S11313900D001600002C07D140F20A322B492C48CC
S11313A0FFF7E4FCAFF30080002D07D140F20B32CD
S11313B026492B48FFF7DAFCAFF30080002E07D153
S11313C04FF4437221492748FFF7D0FCAFF3008064
S11313D02700320029001C483B7850F8230000F015
S11313E0C6FA80464046FFF729FFBDE8F081F8B50C
S11313F004000D001600002C07D140F219321349E5
S11314001348FFF7B3FCAFF30080002D07D140F27F
S11314101A320E491248FFF7A9FCAFF30080002EE0
S113142007D140F21B3209490E48FFF79FFCAFF386
S1131430008027003200290003483B7850F823003D
S113144000F074FA0020F2BD30420000603F00005A
S113145074450000E0440000D83F0000E440000070
S1131460804500008C45000062B38B0708D0521EF3
S113147011F8013B00F8013B00F024808B07F6D102
S1131480830740F0208000BF103A07D330B4B1E89E
S11314903810103AA0E83810F9D230BC530724BFF2
S11314A0B1E80810A0E8081044BF51F8043B40F824
S11314B0043BD20724BF31F8022B20F8022B44BF8F
S11314C00B7803707047121F17D35B0009D151F8D2
S11314D0043B20F8023B1B0C121F20F8023BF6D2FF
S11314E00BE051F8043B00F8013B1B0A20F8023BD7
S11314F01B0C121F00F8013BF3D238BF121D521E01
S113150024BF11F8013B00F8013BF8D870470000F4
S113151000F10103810704D010F8011B820781B197
S1131520FAD10268A2F10131914311F0803104BF74
S113153050F8042FF6E709BAB1FA81F100EBD100B3
S1131540401CC01A7047000010B450E8003F8B43A1
S113155013431C0040E80043002BF6D110BC704735
S11315602DE9F04104000D00260036B2360AA046EB
S11315700FFA88F818F01F08082E09D340F2DF523A
S1131580DFF8F014DFF8F004FFF7F0FBAFF30080AE
S1131590DFF8F00400EB86072A00D2B212FA08F250
S11315A0032111FA08F13800FFF7CEFFBDE8F081FE
S11315B010B504000321200000B2FFF7D1FF10BDD5
S11315C0816851F002018160816831F0020181601B
S11315D0704738B504000025092D09D2DFF89C04B2
S11315E050F82500A04201D128000DE06D1CF3E75E
S11315F0092D08D3D722DFF88814DFF88C04FFF70D
S1131600B5FBAFF30080280032BD2DE9F44F84B060
S113161005000C00002C09D140F26912DFF86014B7
S1131620DFF86C04FFF7A2FBAFF30080206800280A
S113163009D14FF4B572DFF84814DFF85804FFF706
S113164095FBAFF30080207A042809DB4FF4B672CF
S1131650DFF82C14DFF84004FFF788FBAFF30080B9
S1131660607A042809DB40F26D12DFF81414DFF805
S11316702C04FFF77BFBAFF3008000200290D4F82A
S113168000A05FF000080020ADF800005FF004093E
S11316904846C0B221283AD20498410022684846FC
S11316A0C0B24243B1FBF2F0401C400807003800CE
S11316B080B2002802D10120070007E0380080B280
S11316C0B0F5005F02D341F6FF70070004994A4663
S11316D0D2B2380080B24243B1FBF2F001902068EC
S11316E00199884205D2DDF804B02068BBEB000BF9
S11316F004E0D4F800B00198BBEB000BDA4503D347
S1131700DA46C846ADF8007019F10109C0E720684F
S11317106421B0FBF1F103204143514503D240F26F
S1131720215002909CE02800FFF753FF0390DFF85C
S11317307003039930F91100FFF73AFF2800FFF70F
S11317403FFF2A694046C0B2042805D34046C0B2D0
S1131750082801D252F4003232F0F8524046C0B2A6
S1131760401E000610F0F8500243520B5203BDF81D
S11317700000C004C00C10432861286930F00050F8
S11317802861A869DFF81C13014020790143E07B3C
S1131790000210F4E0600143A07B800010F004001C
S11317A001436079012808D12079002802D031F45E
S11317B0006107E051F4006104E02079002801D0C1
S11317C051F01001A9612A6932F40052E079400312
S11317D010F4005010432861607A237A53EA0043DE
S11317E0EB62A86A50F08800A862A86A50F44040EE
S11317F0A862DFF8B40250F0004050F440406B6A35
S1131800667B360116F010063343267B760116F00C
S1131810200633436B62A37A012B03D1696A51F02A
S113182008016962E17A012903D1696A51F0010171
S11318306962A179012902D150F0005001E030F031
S11318400050696901436961AE69217C012901D1B4
S113185056F40026607C012801D156F48026AE613E
S1131860029805B0BDE8F08FF8B50400002C09D14A
S113187040F28D22DFF80812DFF81402FFF776FA3F
S1131880AFF3008014250026270032002900380019
S113189000F076F95FF4E130206000202071002030
S11318A060710020A0710020E071002020720020EF
S11318B060720020A0720020E0720020607300209B
S11318C020730020A0730020E07300202074002007
S11318D06074F1BD02005069916A090C11F0C301F2
S11318E00843DFF86C1208407047F8B504000D0097
S11318F0DFF86002054015F0030F08D0A06A30F449
S11319007030290411F4403108430600A662676967
S113191017F078572F4367612000FFF7DBFF05427C
S113192002D040F21A5000E00020F2BD70B505006C
S11319300C001600002C09D140F23D42DFF84011A2
S1131940DFF84801FFF712FAAFF3008022003100FC
S1131950002907D068690002FCD51078E861521CA0
S1131960491EF5E768694002FCD5002070BD2DE9E9
S1131970F84F06000D001700002D08D140F2BA42BE
S11319803F49DFF80801FFF7F1F9AFF300800024C5
S1131990A946D6F818A05FEA0A5003D41AF0120038
S11319A0022802D15FF0010B01E05FF0000B380068
S11319B0471E00285BD0F06AC0F30260002842D1C1
S11319C03000FFF787FF80465FEA08300CD55FF4EC
S11319D000213000FFF789FF002802D140F21D5496
S11319E001E040F21A542EE05FEAC8300BD55FF4F0
S11319F080313000FFF779FF002802D14FF4A4644E
S1131A0001E040F21A545FEA88300BD55FF40031EC
S1131A103000FFF76AFF002802D140F21F5401E0B2
S1131A2040F21A545FEA48300BD55FF4802130004D
S1131A30FFF75BFF002802D140F21E5401E040F2A0
S1131A401A54002CB7D0002C11D15846C0B200282B
S1131A5007D0F06910F07F0089F8000019F101093E
S1131A60A5E7F06989F8000019F101099FE7200052
S1131A70BDE8F28FEC3D00004845000054420000F0
S1131A80683E000068C00F406C400000BC45000088
S1131A90C8450000044400006C410000944100006B
S1131AA0F4440000E8F8FFFF00001F4080B52A4816
S1131AB041682B48294A52689047BFF34F8F01BDB4
S1131AC0000080B5244881682648244A92689047DB
S1131AD0BFF34F8F01BD80B51F48C16822481F4A1C
S1131AE0D2689047BFF34F8F01BD80B51A48016992
S1131AF01E481A4A12699047BFF34F8F01BD80B543
S1131B00154841691A48154A52699047BFF34F8FE7
S1131B1001BD80B5104881691648104A9269904702
S1131B20BFF34F8F01BD80B50B48C16912480B4A02
S1131B30D2699047BFF34F8F01BD80B50648016A53
S1131B400E48064A126A9047BFF34F8F01BD00004A
S1131B50C3C0FFC103C01FC04001002064010020B6
S1131B60004018400080184000C018400000194090
S1131B70004019400080194000C0194000001A407C
S1131B8062F30F2262F31F42401810F0030308D0DF
S1131B90C91A1FD3DB0748BF00F8012D28BF20F85E
S1131BA0022D130030B414461546103928BF20E91D
S1131BB03C00FAD8490728BF20E90C0048BF40F888
S1131BC0042D890028BF20F8022D48BF00F8012DFC
S1131BD030BC7047C91818BF00F8012DCB0728BFC7
S1131BE000F8012D7047FEE710B450E8003F8B4326
S1131BF013431C0040E80043002BF6D110BC70478F
S1131C00F8B504000D002600B60EDFF8D40704F082
S1131C10FF0141180968C4F34C3223001B0A13F076
S1131C201F039A4091432200120A12F01F0215FA70
S1131C3002F2C4F34C3327003F0A17F01F07BB40DE
S1131C401A40114304F0FF0280180160212E09D3C9
S1131C504FF4B162DFF88C17DFF88C07FFF786F8D2
S1131C60AFF30080202E05D0DFF8EC070068F040C9
S1131C70C007F9D4F1BDF8B504000D002600B60E76
S1131C80DFF85C0704F0FF0141180968C4F34C3223
S1131C9023001B0A13F01F039A4091432200120AE7
S1131CA012F01F0215FA02F2C4F34C3327003F0A64
S1131CB017F01F07BB401A40114304F0FF028018BD
S1131CC00160212E09D340F2BD52DFF81817DFF866
S1131CD01807FFF74BF8AFF30080202E05D0DFF88C
S1131CE078070068F040C007F9D4F1BD2DE9F04150
S1131CF004000D00260036B2360AA0460FFA88F812
S1131D0018F01F08082E09D340F2DF52DFF8D4166A
S1131D10DFF8D806FFF72AF8AFF30080DFF83C07B6
S1131D2000EB86072A00D2B212FA08F2032111FA54
S1131D3008F13800FFF758FFBDE8F08110B5040042
S1131D400021200000B2FFF7D1FF10BDDFF810170B
S1131D5008607047DFF80C170860704710B4130070
S1131D60DBB2002B07D0C1F30B431B181B1D5FF420
S1131D7080341C6006E0C1F30B431B1808335FF486
S1131D8080341C6010BC704710B40B00DBB2042B11
S1131D900BDB436803248C40A3431400E4B214F027
S1131DA003048C401C4344600AE0436807248C40CD
S1131DB0A3431400E4B214F007048C401C434460B1
S1131DC010BC704730B48468DFF89C3623400C00A4
S1131DD0E4B2A40614F080641C431500EDB254EA86
S1131DE00544846030BC704780B500F001F801BD43
S1131DF02DE9F0414FF40040FFF7ACFFDFF8F005A8
S1131E00016851F480310160016831F400310160EE
S1131E10DFF8E005FFF79AFF002000F0C5FB00F0B3
S1131E20F6FB012000F0E5FBDFF8B4057F21026832
S1131E3061F307020260DFF8C04501212000FFF7CB
S1131E40DFFEDFF8B85501212800FFF7D9FEDFF8DF
S1131E50B0051321026861F304020260DFF8A405EF
S1131E6000680028FAD50021DFF89C05FFF703FF7E
S1131E704FF48870FFF762FF4FF48470FFF75EFF42
S1131E8040F21620FFF75AFF4FF40670FFF756FF93
S1131E9040F20E20FFF752FF0321DFF87005FFF731
S1131EA0EAFE0121DFF86805FFF7E5FE0021DFF80F
S1131EB06405FFF7E0FE4FF48A70FFF73FFF4FF42D
S1131EC08B70FFF73BFF1820FFF738FF1A20FFF74E
S1131ED035FF4FF48670FFF731FF0121DFF8380535
S1131EE0FFF7C9FE40F20260FFF728FF0121DFF887
S1131EF02C05FFF7C0FE0021DFF82405FFF780FE64
S1131F0040F20460FFF71AFF0121DFF81805FFF71C
S1131F10B2FE0021DFF81005FFF772FE4FF44170A6
S1131F20FFF70CFF07214FF21400FFF7A4FE002176
S1131F30DFF8F804FFF764FE0021DFF8F404FFF78C
S1131F405FFE40F20A60FFF7F9FE0121DFF8E404C6
S1131F50FFF791FE0321DFF8E004FFF751FE40F2A2
S1131F600270FFF7EBFE0121DFF8D004FFF783FED8
S1131F700121DFF8CC04FFF743FE40F20220FFF713
S1131F80DDFE0121DFF8BC04FFF775FE0021DFF858
S1131F90B804FFF735FE4FF48070FFF7CFFE4FF41F
S1131FA08170FFF7CBFE4FF48270FFF7C7FE4FF44A
S1131FB08370FFF7C3FE0421DFF89004FFF75BFE94
S1131FC00221DFF88C04FFF71BFE1620FFF7B6FE94
S1131FD00321DFF88004FFF74EFE0021DFF88C04B4
S1131FE0FFF70EFE40F21250FFF7A8FE0321DFF8C0
S1131FF08004FFF740FE0121DFF87804FFF73BFE81
S11320000021DFF87404FFF7FBFD40F21450FFF7E2
S113201095FE0321DFF86404FFF72DFE0121DFF8AC
S11320206004FFF728FE0021DFF85804FFF7E8FDFD
S113203040F21650FFF782FE0321DFF84C04FFF74D
S11320401AFE0121DFF84404FFF715FE0021DFF832
S11320504004FFF7D5FD40F20620FFF76FFE4FF472
S11320600270FFF76BFE40F20A20FFF767FE0021C3
S1132070DFF82004FFF7FFFD0021DFF81C04FFF761
S1132080BFFD0E20FFF75AFE1220FFF757FE40F265
S11320900670FFF753FE1020FFF750FE1420FFF7E1
S11320A04DFE4FF4E160FFF749FE0121DFF8EC0338
S11320B0FFF7E1FD0221DFF8E803FFF7A1FD4FF48C
S11320C0A360FFF73BFE1C20FFF738FE0C20FFF750
S11320D035FE4FF48C70FFF731FE40F20230FFF70B
S11320E02DFE40F20630FFF729FE40F21A50FFF7AA
S11320F025FE40F20E60FFF721FE0021DFF8A40365
S1132100FFF7B9FD0021DFF8A003FFF779FD40F2E6
S11321100A30FFF713FE0121DFF89003FFF7ABFD50
S11321200321DFF88C03FFF7A6FD0521DFF8840304
S1132130FFF766FD40F20E50FFF700FE0121DFF8C5
S11321407803FFF798FD0721DFF87003FFF793FD8D
S11321500321DFF86C03FFF753FD40F20250FFF751
S1132160EDFD0121DFF85C03FFF785FD0721DFF8B2
S11321705803FFF780FD0321DFF85003FFF740FD0C
S11321804FF44070FFF7DAFD0121DFF84403FFF755
S113219072FD0721DFF83C03FFF76DFD0321DFF833
S11321A03803FFF72DFD0021DFF83003FFF728FD8A
S11321B0DFF82C0300F032FADFF8280300F04AFAC3
S11321C01B21002000F002FC1021012000F0FEFB86
S11321D01821022000F0FAFB1021032000F0F6FB86
S11321E0DFF8040300F06CFA2121002000F00DFC5C
S11321F01021012000F009FC1121022000F005FC4F
S11322001321032000F001FCDFF8E002016831F043
S11322104001016000F071FA0122DFF8D412DFF806
S1132220D402FFF79BFDDFF8D012086830F40040B9
S11322300860086830F400000860DFF8C002026833
S113224052F400520260DFF8B802026832F400521D
S113225002600422036862F3903303600022DFF813
S1132260A4321A600122DFF8A0321A600268DFF893
S11322709C72174047F4005757F01F0757F4002784
S11322800A6852F040420A60076001680029FCD5E0
S1132290DFF860620022DFF878123000FFF75EFD9D
S11322A000F031FA0122DFF86C123000FFF756FD1E
S11322B0DFF864025FF00108016868F3010101605E
S11322C0016851F400510160016831F00C010160B2
S11322D0016851F480110160016851F4001101603A
S11322E000F006FA0122DFF834123000FFF736FD61
S11322F0DFF82C02016851F4005101600321DFF87A
S11323002402FFF77DFC00212800FFF779FC00215F
S11323102000FFF775FC0021DFF80C02FFF770FCCA
S1132320DFF808020168490949010160DFF8000289
S1132330016831F070010160016868F30301016014
S1132340016831F4600101601221026861F31442F2
S11323500260016831F480710160016831F080012C
S11323600160016831F080710160DFF8C84100222A
S113237000212000FFF708FD002203212000FFF7C1
S113238003FD002206212000FFF7FEFC00220821A5
S11323902000FFF7F9FC00220A212000FFF7F4FCDB
S11323A0002200212000FFF70DFDDFF88C010168F9
S11323B031F400310160016831F480210160DFF8FB
S11323C07C01016831F080510160016831F00051F5
S11323D00160DFF86C01DFF86C110860BDE8F08182
S11323E000C00F40803B000054440000084500003A
S11323F0C0820D4000366E01186C00801439001440
S11324000C0008400000084014EA0004146800802E
S113241010E0004014FB00801CE0078024EB0080E7
S11324201C30008024F000801C31008014270080C0
S1132430142600801CF700801C7D008018FD00809D
S1132440186800803CEB00803C69008018FA00802A
S1132450186400802479008048C00F4068C00F4091
S11324602401002028010020FFFF00FB186E0080DB
S113247028E6008028E007801C6A00802CE60080A3
S11324802CE007801C6C008028F6008028F0078070
S11324901C6E008038F307803832008020E2078009
S11324A02068008024E007802426008038EC008027
S11324B018F7008038EF008030F9008030F6008093
S11324C03074008030EC008030E900803067008098
S11324D028E9008028F90080207300800C20008007
S11324E0DC450000CC4400000E15000010800D40B7
S11324F00D00700000800D4070810D4070800D4013
S1132500A0800D40B0800D40C0800D4080EFFFFFE3
S11325100D00A0000D00E000E0800D400D00200043
S113252020800D40187200801C26008060810D40C0
S113253060C00F4000C00A4004C00A4014C00A40F2
S11325400046C32320000020DFF8C8010068C0064D
S113255002D5DFF8C40102E0DFF8EC04006870473C
S11325600901090D08180068000C10F001007047FB
S11325700A001201120D1018006811F01F01C84062
S113258010F00100704738B504000D002800000168
S1132590000D00190068C0F38130002802D1FFF754
S11325A0D3FF00E0002032BD10B504002000C0B20B
S11325B0002808D0C122DFF89414DFF89404FEF751
S11325C0D5FBAFF30080DFF88C045FF0804101603D
S11325D0DFF840110968C903FAD55FF48031DFF8E8
S11325E078241160DFF87C2412681204FAD50160A3
S11325F010BD0100C9B2002904D11021DFF85C2408
S1132600116003E01021DFF8602411607047DFF8E7
S11326100401016851F0010101607047DFF85024A2
S11326201168037963F38F3151F4803111601368B9
S1132630DFF840140B40017811F07F010B4353F491
S11326400053136011680029FCD5116831F48031FE
S113265011607047DFF820241168037B63F38F3126
S113266051F4803111601368DFF810140B400178C5
S113267011F001010B4353F400531360416821F03E
S11326804041DFF8FC331960816821F04041DFF8F4
S1132690F4331960418A4904490C037CDB0313F4C5
S11326A000431943C38951EA0341DFF8DC3319605D
S11326B011680029FCD5116831F48031116070472C
S11326C0DFF8A8130A68437863F38F3252F4803238
S11326D00A600A68037863F3410252F441520A60C3
S11326E00A68002AFCD50A6832F480320A6070470E
S11326F00020DFF89813086070474FF48050DFF82B
S11327009013086070474FF48050DFF8A4130860FA
S11327107047000070820D4000366E01F8B52DED53
S1132720028B0400DFF8487321003800FFF720FF14
S1132730002801D1002046E121003800FFF723FFE3
S1132740060021003800FFF70BFF002801D03000FD
S113275039E120000D3821D05FF48011401A4BD0AC
S11327605FF48011401A00F021815FF48011401A57
S11327701BD05FF48001401A49D05FF44011401A25
S113278000F0A1805FF48001401A00F0F680C01FC1
S113279000F0FE80401E00F0068112E1386810F05F
S11327A07F004643760837000CE100EE106AB8EE6D
S11327B0400BDFF8CC0290ED001AB8EE411B20EE7E
S11327C0010BDFF8C00290ED001AB8EE411B80EE59
S11327D0010BB0EE408BDFF8A0020068C00702D501
S11327E01620464301E014204643BCEEC80B10EE0D
S11327F0100A86193700E5E0DFF8700200688007E8
S113280001D5162000E0142046433700DAE0DFF853
S11328108012086810F07F00050000EE106AB8EE20
S1132820400BDFF8700290ED001AB8EE411B20EE69
S1132830010BDFF8640290ED001AB8EE411B80EE44
S1132840010BB0EE408BBCEEC80B10EE100A05FB7A
S113285006063700086810F4C010002806D0B0F54A
S1132860002F05D0B0F5801F04D004E0BF080AE0B3
S11328707F0808E007E040F21742744978A0FEF7A9
S113288075FAAFF30080DFF818020168DFF80C0274
S1132890014000290DD0B1F5004F08D0B1F5000F6B
S11328A007D0DFF8F801814204D1BF080AE07F08AD
S11328B008E007E040F22B42644969A0FEF756FAAB
S11328C0AFF300807EE0DFF8DC11086810F07F00D1
S11328D0050000EE106AB8EE400BDFF8CC0190ED75
S11328E0001AB8EE411B20EE010BDFF8C00190ED99
S11328F0001AB8EE411B80EE010BB0EE408BBCEE2B
S1132900C80B10EE100A05FB06063700086810F421
S1132910C010002806D0B0F5002F05D0B0F5801FF8
S113292004D004E0BF080AE07F0808E007E04FF4A1
S11329308B6246494AA0FEF719FAAFF30080DFF82C
S11329406001006810F0404000280CD0B0F1804FC6
S113295007D0B0F1004F06D0B0F1404F04D1BF080A
S11329600AE07F0808E007E040F26C4237493CA0E7
S1132970FEF7FCF9AFF3008024E0DFF834010068CF
S113298010F003000500DFF82C0150F8257019E061
S1132990DFF81C010068C0F381000500DFF81401B2
S11329A050F825700EE0DFF810710BE0DFF8DC0062
S11329B00068800701D5162000E014204643370044
S11329C000E000273800BDEC028BF2BD70B40300B8
S11329D0DBB2DFF8E8502C68BF261A00D2B2D2006E
S11329E09640B44380261A00D2B2D20096402643C1
S11329F02E600E00F6B216F03F061A00D2B2D200D4
S1132A00964026432E6070BC704770B40300DBB25E
S1132A10DFF8AC502C68BF261A00D2B2D200964020
S1132A20B44380261A00D2B2D200964026432E60C8
S1132A300E00F6B216F03F061A00D2B2D20096404B
S1132A4026432E6070BC704724010020783C0000AF
S1132A501845000058810D4054810D4074820D408A
S1132A603000000050810D4078820D4010800D40F0
S1132A7000800D4080EFFFFF30800D40FEEFFFFF30
S1132A8050800D4060800D4040800D4020800D40FE
S1132A9070800D4080800D4090800D40008080004B
S1132AA070810D40A0800D40B0800D40C0800D406D
S1132AB0E0800D402845000040787D0100810D40F4
S1132AC0F0800D40F8B504000D002600B60EDFF8C6
S1132AD08C0304F0FF0141180968C4F34C3223004D
S1132AE01B0A13F01F039A4091432200120A12F0AA
S1132AF01F0215FA02F2C4F34C3327003F0A17F001
S1132B001F07BB401A40114304F0FF028018016004
S1132B10212E09D34FF4B162DFF84413DFF84403E4
S1132B20FEF724F9AFF30080202E05D0DFF8380338
S1132B300068F040C007F9D4F1BDF8B504000D00F9
S1132B402600B60EDFF8140304F0FF0141180968EB
S1132B50C4F34C3223001B0A13F01F039A40914321
S1132B602200120A12F01F0215FA02F2C4F34C33C7
S1132B7027003F0A17F01F07BB401A40114304F017
S1132B80FF0280180160212E09D340F2BD52DFF804
S1132B90D012DFF8D002FEF7E9F8AFF30080202E60
S1132BA005D0DFF8C4020068F040C007F9D4F1BDD5
S1132BB0016851F0010101600168C907FCD4704744
S1132BC080B5DFF8A8020088ADF800006846FFF77A
S1132BD077FD18210020FFF718FF0121DFF890028C
S1132BE0FFF770FF0221DFF88C02FFF7A6FF01BD9B
S1132BF083B00100DFF880221068C0033ED50020B6
S1132C00DFF878321860BFF34F8F106830F48030EB
S1132C101060BFF34F8FDFF8680201AB03606B46AF
S1132C20036002AB0360BFF34F8FBFF36F8FDFF816
S1132C305402006802900298C0F34E30019002984A
S1132C40C0F3C9000090019843F6E07313EA4013FF
S1132C50009853EA8073DFF8300203600098431E43
S1132C6000930028EFD10198431E01930028E6D178
S1132C70BFF34F8FBFF36F8F01200870106880037C
S1132C8011D5BFF34F8FBFF36F8F106830F400304E
S1132C9010600020DFF8F4211060BFF34F8FBFF302
S1132CA06F8F0120487003B0704711B49DF8000085
S1132CB000282FD0DFF8C0010068C0032AD4002008
S1132CC0DFF8B8110860BFF34F8FDFF8B80101686F
S1132CD0C1F34E32C1F3C900030043F6E07010EAB9
S1132CE0421050EA8370DFF8A84120601800431EA8
S1132CF00028F2D11000421E0028EBD1BFF34F8F01
S1132D00DFF87401046854F480340460BFF34F8F17
S1132D10BFF36F8F9DF80100002818D0DFF8580129
S1132D200168890313D4BFF34F8FBFF36F8F002162
S1132D30DFF858211160BFF34F8FBFF36F8F016825
S1132D4051F400310160BFF34F8FBFF36F8F11BC9B
S1132D50704738B584B004000D00009500208DF84C
S1132D60040000208DF8050001208DF807000420E0
S1132D708DF8060069462000FDF776FF05B030BDEA
S1132D8078B585B005000020019000208DF808007A
S1132D9002208DF8090001208DF80B000C208DF81D
S1132DA00A00684603900120049001A92800FDF759
S1132DB05BFF0400002C01D020000CE00098C00749
S1132DC002D50120060001E0002006003000C0B258
S1132DD00028EAD1200006B070BDF8B5CAB00400DE
S1132DE0F02100220EAD2800FEF7CAFE6846FFF768
S1132DF0FFFEF025274E0EAF2A0031003800FEF703
S1132E0033FBFFF7DDFE01A8FDF7BCFC01208DF8C4
S1132E10340001208DF8350001208DF833000120A5
S1132E208DF8360001208DF8040001A92000FDF77B
S1132E30DBFB002218492000FDF74AFD3C230EAAC3
S1132E4000212000FDF7FEFD2000FFF7B1FEBDF8D4
S1132E500000FFF72AFF4BB0F0BD000000C00F4098
S1132E60FC3B00006C44000048C00F4046150000C5
S1132E701868008018FD008014ED00E084ED00E087
S1132E8070EF00E080ED00E074EF00E050EF00E050
S1132E9060EF00E0F039000000000020BFF35F8F16
S1132EA050F00101C44A1160C4490A6852F48032E6
S1132EB00A60BFF34F8FBFF36F8F7047BFF35F8F0D
S1132EC0BE48016831F480310160BB48016849089B
S1132ED049000160BFF34F8FBFF36F8F704701004C
S1132EE001F0FF0000F1804010F57C200068C1F380
S1132EF04C320B001B0A13F01F039A401040090ABE
S1132F0011F01F01C8407047010001F0FF0000F1FB
S1132F10804010F57C200068C1F34C320B001B0A82
S1132F2013F01F039A401040090A11F01F01C84012
S1132F307047A3480068C00601D5A24801E0A24832
S1132F400068704710B5A148FFF7C9FF00280CD1ED
S1132F509F48FFF7E3FB0621B0FBF1F49D48FFF720
S1132F60D3FF401CB4FBF0F008E0FFF7E2FF0400DD
S1132F709848FFF7C9FF401CB4FBF0F010BD10B532
S1132F80FFF7E0FF0400230001225FF4E131012098
S1132F90FDF700FF10BD2DE9FF418F4C8F4D002040
S1132FA000908F4E306880030ED5BFF34F8FBFF370
S1132FB06F8F306830F40030306000208949086039
S1132FC0BFF34F8FBFF36F8F3068C00338D5002035
S1132FD085490860BFF34F8F306830F4803030602B
S1132FE0BFF34F8F814802A9016001A9016003A9C1
S1132FF00160BFF34F8FBFF36F8F7D48006803906C
S11330000398C0F34E3002900398C0F3C9000190B6
S1133010029843F6E07111EA4011019851EA807177
S1133020744801600198411E01910028F0D1029872
S1133030411E02910028E7D1BFF34F8FBFF36F8F7A
S1133040FFF73CFF6C4F10203860DFF8B0816C480C
S1133050C8F800006B4838606B48C8F800006B493A
S11330603960C8F80000142038606948C8F80000C6
S1133070152038606748C8F8000067493960C8F807
S11330800000664838606648C8F800006548386043
S11330906548C8F8000000982900C140022903D3FC
S11330A00098401C0090F6E70098002835D0B4FB47
S11330B0F5F005FB1040002807D040F285125B496B
S11330C05B48FDF753FEAFF3008001210098814077
S11330D08D4207D04FF4C37254495648FDF746FE5B
S11330E0AFF300800098052807D240F287124F49B9
S11330F05148FDF73BFEAFF300801A20210060F336
S1133100040139600098401E400010F03E0040F079
S1133110427050F00100C8F8000048483860484840
S1133120C8F80000474838604748C8F8000006203F
S1133130FFF7B4FE3068C00326D400202A49086093
S1133140BFF34F8F2A480168C1F34E32C1F3C9005F
S1133150030043F6E07010EA421050EA83703B4EDD
S113316030601800431E0028F3D11000421E0028CE
S1133170ECD1BFF34F8F1A4E306850F4803030607A
S1133180BFF34F8FBFF36F8F3068800312D4BFF348
S11331904F8FBFF36F8F002012490860BFF34F8F2A
S11331A0BFF36F8F306850F400303060BFF34F8F3F
S11331B0BFF36F8FBDE8FF8194ED00E024ED00E0E4
S11331C070820D4000366E01240100202426008008
S11331D00D00100024E00780000020200000000003
S11331E014ED00E050EF00E084ED00E070EF00E04B
S11331F080ED00E074EF00E09CED00E0A0ED00E065
S11332003F0000101100008039001003120000601C
S11332103B001003210003031600002017002020A8
S1133220250003031800282023000303E03A0000CC
S11332303C440000B0430000D44500001B000040A3
S11332402B0010031C0000422700100360EF00E075
S1133250016851F0010101600168C907FCD470479D
S113326030B585B004000D000020009000200190CE
S113327000208DF8080002208DF8090001208DF847
S11332800B0008208DF80A00684603900320049080
S113329001A92000FDF7E8FC0099296005B030BDC4
S11332A0F8B584B004000D0016001F00009500203E
S11332B08DF8040002208DF8050001208DF8070028
S11332C00D208DF806000296039769462000FDF74D
S11332D0CBFC05B0F0BDF8B584B006000F00390092
S11332E03000FFF736FD0400002C01D020001DE063
S11332F0009700208DF8040000208DF805000120BF
S11333008DF807000A208DF8060069463000FDF7A5
S1133310ABFC0500002D01D0280007E03000FFF7CA
S11333202FFD04003000FFF793FF200005B0F0BD2F
S11333302DE9F84384B006000F0090469946390001
S11333403000FFF706FD0400002C01D0200021E02E
S1133350009700208DF8040003208DF8050001205B
S11333608DF807000B208DF80600CDF80880CDF805
S11333700C9069463000FDF777FC0500002D01D064
S1133380280007E03000FFF7FBFC04003000FFF7E3
S11333905FFF200005B0BDE8F0832DE9FF41002662
S11333A0494D69462800FFF75BFF0400002C03D059
S11333B04648FDF72AFD7CE09DF80000EF2873D114
S11333C04348FDF722FD434E4FF480733200002141
S11333D02800FFF765FF040008270DF104083A00F0
S11333E031004046FEF740F8002C59D101983A4983
S11333F0884229D13948FDF708FD9DF809000128C4
S113340057D13748FDF701FD9DF80800002811D079
S113341005280BD0062805D007280CD126A0FDF7D7
S1133420F4FC0BE025A0FDF7F0FC07E024A0FDF779
S1133430ECFC03E002E023A0FDF7E7FC9DF8081094
S11334402848FDF7E2FC34E001992748FDF7DDFC4C
S113345000212800FFF73FFF04002448FDF7D5FCB6
S1133460002C19D1224E3000FDF7CFFC214F4FF430
S113347080733A0000212800FFF75AFF04001E4819
S1133480FDF7C3FC002C03D13000FDF7BEFC10E0B7
S11334901A48FDF7BAFC0CE01848FDF7B6FC08E042
S11334A01748FDF7B2FC04E09DF800101548FDF73D
S11334B0ACFCBDE8FF8100004300000042000000B6
S11334C0410000007800000000402A40CC43000086
S11334D00843000024000020534644508444000064
S11334E0284300009C44000014410000E84300000D
S11334F0E4450000F8370000484300006845000038
S1133500B44400000C42000070B4049C11F00F0598
S1133510260116F0100635430560002A00D013601A
S113352070BC704730B4029C039D002C00D0256011
S113353030BC70472DE9FE4F012001904E480090A9
S113354000234E4A00214E48FFF7DEFF0120019080
S11335504C4800900023002200214B48FFF7D4FF81
S113356001200190494800900223494A002149481A
S1133570FFF7CAFF484C0120019000940223474AF8
S113358000214748FFF7C0FF464D474E474F0120F3
S1133590019000970023320000212800FFF7B4FFB8
S11335A0DFF80C81DFF80C91DFF80CA10120019009
S11335B0CDF800A000234A4600214046FFF7A4FFAF
S11335C041F2F10BCDF804B02B48009000232B4AB4
S11335D000212B48FFF7A6FFCDF804B0294800903E
S11335E00023002200212848FFF79CFFCDF804B0F7
S11335F0264800900223264A00212648FFF792FF1E
S1133600CDF804B000940223244A00212448FFF793
S113361089FFCDF804B00097002332000021280070
S1133620FFF780FFCDF804B0CDF800A000234A4690
S113363000214046FFF776FFCDF804B01F48009004
S113364002231F4A00211F48FFF76CFFBDE8F78FD4
S113365080B5FFF7A0FC00F08AF8FEF7C5FBFFF782
S11336608EFCFFF767FF1848FFF7B7FB1748FDF715
S1133670CCFBFFF792FEFEE7EC861F402C871F4031
S113368094861F4004871F40AC861F40D4861F4089
S113369050871F407C861F40BC861F4030871F40D8
S11336A064861F40A0861F4034871F40F8861F4051
S11336B09C861F4038871F40F4861F40DC861F40CD
S11336C03C871F4084861F4000402A40E842000097
S11336D010B450E8003F8B4313431C0040E8004300
S11336E0002BF6D110BC70472DE9F04104000D0009
S11336F0260036B2360AA0460FFA88F818F01F08DA
S1133700082E07D340F2DF5234493548FDF72EFB2B
S1133710AFF30080334800EB86072A00D2B212FAD6
S113372008F2032111FA08F13800FFF7D1FFBDE8D0
S1133730F08110B504000321200000B2FFF7D4FF8C
S113374010BD70B4049C11F00F05260116F010068C
S113375035430560002A00D0136070BC704730B454
S1133760029C039D002C00D0256030BC704780B5BE
S113377000F001F801BD2DE9FC4140F20240FFF7E1
S1133780D8FF194C194D0020019000950023002208
S113379002212000FFF7D5FF154E164F002001909F
S11337A000970023002202213000FFF7CAFF41F2F4
S11337B0B008CDF8048000950023002202212000E7
S11337C0FFF7CDFFCDF804800097002300220221EB
S11337D03000FFF7C4FFBDE8F3810000E43E0000C1
S11337E05845000068C00F40EC801F40DC821F4039
S11337F0F0801F40E0821F4053464450050100FF03
S113380000050110800000FFFFFFFFFFFFFFFFFF27
S1133810FFFFFFFFFFFFFFFFFFFFFFFFFFFFFFFFB4
S1133820FFFFFFFFFFFFFFFFFFFFFFFFFFFFFFFFA4
S1133830FFFFFFFFFFFFFFFFFFFFFFFFFFFFFFFF94
S1133840FFFFFFFFFFFFFFFFFFFFFFFFFFFFFFFF84
S1133850FFFFFFFFFFFFFFFFFFFFFFFFFFFFFFFF74
S1133860FFFFFFFFFFFFFFFFFFFFFFFFFFFFFFFF64
S1133870FFFFFFFFFFFFFFFFE520F9FFFFFFFF0151
S113388044EB086B083B42BBFEFFFFFFFFFF000059
S1133890FFFF40EB0C200F5210D800002602A600B8
S11338A081EC14C2ED6176337A757A75F7A2D55C32
S11338B019F74DFFE930C080FFFFFFFFFFFFFFFF57
S11338C0FFFFFFFFFFFFFFFFFFFFFFFFFFFFFFFF04
S11338D0FFFFFFFFFFFFFFFFFFFFFFFFFFFFFFFFF4
S11338E0FFFFFFFFFFFFFFFFFFFFFFFFFFFFFFFFE4
S11338F0FFFFFFFFFFFFFFFF80B53048016851F471
S1133900700101602E490A884FF6FE7002400A8059
S11339102C490A884FF6FE7002400A802A4908881A
S1133920400704D50A884FF6FB7002400A802749F5
S11339300888400704D50A884FF6FB7002400A80C5
S113394023480168890403D52249234A116006E00B
S113395021494CF220520A604DF628120A604FF6B3
S1133960FF711E4A1160016831F0800151F020019D
S113397001601B480168C90703D50168490849006B
S1133980016018480168890315D40168890312D4B9
S1133990BFF34F8FBFF36F8F0021134A1160BFF342
S11339A04F8FBFF36F8F016851F400310160BFF393
S11339B04F8FBFF36F8F00F019F801BD88ED00E061
S11339C008800B4008000D4000800B4000000D40B3
S11339D000C00B4020C528D904C00B4008C00B40D0
S11339E010E000E014ED00E050EF00E07047FEE767
S11339F00304180804240000000000000000000074
S1133A000B04180808300424000000000000000023
S1133A10EB04180A0632042600000000000000002F
S1133A2081040424000000000000000000000000E5
S1133A300604000000000000000000000000000078
S1133A40200418080000000000000000000000002E
S1133A500204180804200000000000000000000018
S1133A6032041808042200000000000000000000D6
S1133A709F04042400000000000000000000000077
S1133A8031040420000000000000000000000000D9
S1133A9044041808000000000000000000000000BA
S1133AA042041808FF20000000000000000000008D
S1133AB005040424000000000000000000000000D1
S1133AC05A0418080830FF24000000000000000019
S1133AD000000000000000000000000000000000E2
S1133AE0433A5C576F726B73706163655C676974AA
S1133AF06875625F7265706F5F6A61795C696D7821
S1133B0072742D69737375652D66756E632D70659A
S1133B1072665C66756E632D696D7872742D736957
S1133B20702D666C6173682D736664702D636865AF
S1133B30636B5C626F617264735C65766B6D696DF7
S1133B40787274313036345C736664705F70726F8F
S1133B50675C666C65787370695C6E6F725F696EC2
S1133B607465726E616C5C706F6C6C696E675F74A7
S1133B7072616E736665725C626F6172642E63005B
S1133B80433A5C576F726B73706163655C67697409
S1133B906875625F7265706F5F6A61795C696D7880
S1133BA072742D69737375652D66756E632D7065FA
S1133BB072665C66756E632D696D7872742D7369B7
S1133BC0702D666C6173682D736664702D6368650F
S1133BD0636B5C646576696365735C4D494D5852EB
S1133BE054313036345C647269766572735C667322
S1133BF06C5F636C6F636B2E68000000433A5C5724
S1133C006F726B73706163655C6769746875625F1A
S1133C107265706F5F6A61795C696D7872742D6921
S1133C20737375652D66756E632D706572665C665B
S1133C30756E632D696D7872742D7369702D666C61
S1133C406173682D736664702D636865636B5C646F
S1133C506576696365735C4D494D5852543130360D
S1133C60345C647269766572735C66736C5F636CF2
S1133C706F636B2E68000000433A5C576F726B737E
S1133C80706163655C6769746875625F7265706FA3
S1133C905F6A61795C696D7872742D697373756597
S1133CA02D66756E632D706572665C66756E632D28
S1133CB0696D7872742D7369702D666C6173682DEB
S1133CC0736664702D636865636B5C6465766963B1
S1133CD065735C4D494D585254313036345C6472CE
S1133CE069766572735C66736C5F636C6F636B2E6D
S1133CF063000000433A5C576F726B7370616365D5
S1133D005C6769746875625F7265706F5F6A617918
S1133D105C696D7872742D69737375652D66756E43
S1133D20632D706572665C66756E632D696D78725D
S1133D30742D7369702D666C6173682D736664707D
S1133D402D636865636B5C646576696365735C4D5C
S1133D50494D585254313036345C64726976657218
S1133D60735C66736C5F636C6F636B2E680000003A
S1133D70433A5C576F726B73706163655C67697417
S1133D806875625F7265706F5F6A61795C696D788E
S1133D9072742D69737375652D66756E632D706508
S1133DA072665C66756E632D696D7872742D7369C5
S1133DB0702D666C6173682D736664702D6368651D
S1133DC0636B5C646576696365735C4D494D5852F9
S1133DD054313036345C647269766572735C667330
S1133DE06C5F666C65787370692E6300433A5C5748
S1133DF06F726B73706163655C6769746875625F29
S1133E007265706F5F6A61795C696D7872742D692F
S1133E10737375652D66756E632D706572665C6669
S1133E20756E632D696D7872742D7369702D666C6F
S1133E306173682D736664702D636865636B5C647D
S1133E406576696365735C4D494D5852543130361B
S1133E50345C647269766572735C66736C5F636C00
S1133E606F636B2E68000000433A5C576F726B738C
S1133E70706163655C6769746875625F7265706FB1
S1133E805F6A61795C696D7872742D6973737565A5
S1133E902D66756E632D706572665C66756E632D36
S1133EA0696D7872742D7369702D666C6173682DF9
S1133EB0736664702D636865636B5C6465766963BF
S1133EC065735C4D494D585254313036345C6472DC
S1133ED069766572735C66736C5F6C70756172741D
S1133EE02E630000433A5C576F726B7370616365B5
S1133EF05C6769746875625F7265706F5F6A617927
S1133F005C696D7872742D69737375652D66756E51
S1133F10632D706572665C66756E632D696D78726B
S1133F20742D7369702D666C6173682D736664708B
S1133F302D636865636B5C646576696365735C4D6A
S1133F40494D585254313036345C64726976657226
S1133F50735C66736C5F636C6F636B2E6800000048
S1133F60433A5C576F726B73706163655C67697425
S1133F706875625F7265706F5F6A61795C696D789C
S1133F8072742D69737375652D66756E632D706516
S1133F9072665C66756E632D696D7872742D7369D3
S1133FA0702D666C6173682D736664702D6368652B
S1133FB0636B5C636F6D706F6E656E74735C75615B
S1133FC072745C66736C5F616461707465725F6C5B
S1133FD070756172742E6300756172745F636F6EC5
S1133FE06669672D3E696E7374616E6365203C205B
S1133FF02873697A656F6628735F4C707561727493
S1134000416461707465724261736529202F207365
S1134010697A656F66284C50554152545F547970E3
S113402065202A2929000000696E7374616E636536
S1134030203C202873697A656F6628735F666C6517
S113404078737069426173657329202F2073697ACC
S1134050656F662828735F666C6578737069426162
S1134060736573295B305D2929000000696E7374E0
S1134070616E6365203C202873697A656F662873D6
S11340805F6C7075617274426173657329202F20AF
S113409073697A656F662828735F6C7075617274D2
S11340A04261736573295B305D29290030B40025B2
S11340B012E050F8042BD30744BF4A44521E091F90
S11340C0042942F8045BFAD213468C0744BF1580D6
S11340D09B1CC90748BF1D7050F8041B0029E8D178
S11340E030BC70473020213D20735F4C7075617285
S11340F07441646170746572426173655B75617269
S1134100745F636F6E6669672D3E696E7374616E6A
S113411063655D0047657420496E76616C6964204F
S1134120466C61736820534644502C205369676E73
S11341306174757265203D20307825782E0D0A0053
S1134140415353455254204552524F522022202568
S11341507320223A2066696C652022257322204C44
S1134160696E652022256422200A00002875696E84
S113417074385F7429283429203E20636F6E666981
S1134180672D3E74784669666F57617465726D6118
S1134190726B00002875696E74385F74292834299D
S11341A0203E20636F6E6669672D3E7278466966AD
S11341B06F57617465726D61726B000072B6054869
S11341C0054901600A6882F308880448804762B69A
S11341D00348004708ED00E000000000F938000043
S11341E02144000010B5074979441831064C7C4439
S11341F0163404E00A68081D114488470146A142A8
S1134200F8D110BDBC000000DC000000476574203C
S1134210496E76616C696420466C617368205665EA
S11342206E646F72204944203078257800000000C5
S113423000000000004018400080184000C01840F2
S113424000001940004019400080194000C0194086
S113425000001A4000000000004018400080184090
S113426000C0184000001940004019400080194067
S113427000C0194000001A40000E2707000000008B
S11342800010000000000200030300000000000210
S1134290010000000000000000A4781F4EF68851C1
S11342A0CEF20001086840F470000860BFF34F8F3D
S11342B0BFF36F8F4FF00170E1EE100A70470000FA
S11342C0EDFDFFFF64010000240000200000000059
S11342D043CFFFFF24000000A0FFFFFF00000020E9
S11342E000000000FEE700000D0A464C45585350FC
S11342F049206578616D706C6520737461727465B2
S113430064210D0A000000004765742056616C6941
S11343106420466C6173682056656E646F72204930
S1134320442E0D0A00000000466C61736820534659
S113433044502056657273696F6E206973204A4534
S1134340534432313600000050726F6772616D6DF4
S1134350656420466C61736820534644502052655E
S113436067696F6E202D200000F00DF8002801D041
S1134370FFF738FFAFF300800020AFF30080FFF7B2
S113438067F900F002F80120704700F001B8FEE779
S11343900746384600F002F8FBE7FEE780B5AFF3C6
S11343A00080024A11001820ABBEFBE72600020081
S11343B073697A65203D3D202875696E7433325FD8
S11343C074292831203C3C20692900004765742069
S11343D0466C6173682056656E646F722049442090
S11343E06661696C656400004572617365642046AA
S11343F06C617368205346445020526567696F6E40
S1134400202D20003055203C20636F6E6669672D97
S11344103E62617564526174655F427073000000AE
S11344200548014603B4684680F30988AFF3008069
S1134430FFF734FFFFF798FFA5EDF5FE21286E6F17
S11344406E436163686553746172742025207369D7
S11344507A652900627573795368696674203C3DF6
S113446020283078323055290000000062757379B5
S11344705368696674203C3D2028307832305529D1
S1134480000000004765742056616C696420466C26
S113449061736820534644502E0D0A00202D206D70
S11344A0696E6F725F726576203D2025642E0D0A59
S11344B00000000047657420466C61736820534611
S11344C04450206661696C65640D0A0001000000B7
S11344D000000000010000000000000000000000D7
S11344E03020213D20756172745F636F6E66696769
S11344F000000000FFFF18051C000C001801020357
S113450006031A050E060000696E646578203C3DBA
S11345102037554C00000000216279706173735894
S113452074616C4F7363000040787D0180F0FA027F
S113453000E1F50540597307696E646578203C3DD8
S11345402037554C00000000696E646578203C3DBE
S11345502037554C00000000696E646578203C3DAE
S11345602037554C000000004661696C65642E0DCF
S11345700A0000003020213D2068616E646C6500F3
S11345803020213D20646174610000006C656E6719
S11345907468203E2030550073726320213D203022
S11345A000000000696E646578203C2036345500B4
S11345B000802A400000000000402A403020213DB5
S11345C020646174610000003020213D20636F6E1F
S11345D06669670069203E3D2035000064000000E4
S11345E000000000446F6E652E0D0A000A06FFFFEE
S11345F002070000004800479547000000480047B4
S113460095470000004800479547000000480047D0
S113461095470000004800479547000000480047C0
S113462095470000004800479547000000480047B0
S113463095470000004800479547000000480047A0
S11346409547000000480047954700000048004790
S11346509547000000480047954700000048004780
S11346609547000000480047954700000048004770
S11346709547000000480047954700000048004760
S1134680AD1A000000480047C31A00000048004764
S1134690D71A000000480047EB1A00000048004702
S11346A0FF1A000000480047131B000000480047A1
S11346B0271B0000004800473B1B00000048004740
S11346C09547000000480047954700000048004710
S11346D09547000000480047954700000048004700
S11346E095470000004800479547000000480047F0
S11346F095470000004800479547000000480047E0
S113470095470000004800479547000000480047CF
S113471095470000004800479547000000480047BF
S113472095470000004800479547000000480047AF
S1134730954700000048004795470000004800479F
S1134740954700000048004795470000004800478F
S1134750954700000048004795470000004800477F
S1134760954700000048004795470000004800476F
S1134770954700000048004795470000004800475F
S1134780954700000048004795470000004800474F
S113479095470000FFF7FEBFFEE7FEE7FEE7FEE7F2
S90341BDFE
